{
	"abi": [
		{
			"type": "constructor",
			"inputs": [],
			"stateMutability": "nonpayable"
		},
		{
			"type": "function",
			"name": "addSigners",
			"inputs": [
				{
					"name": "_signers",
					"type": "address[]",
					"internalType": "address[]"
				}
			],
			"outputs": [],
			"stateMutability": "nonpayable"
		},
		{
			"type": "function",
			"name": "addresslistLength",
			"inputs": [],
			"outputs": [
				{
					"name": "",
					"type": "uint256",
					"internalType": "uint256"
				}
			],
			"stateMutability": "view"
		},
		{
			"type": "function",
			"name": "addresslistLengthAtBlock",
			"inputs": [
				{
					"name": "_blockNumber",
					"type": "uint256",
					"internalType": "uint256"
				}
			],
			"outputs": [
				{
					"name": "",
					"type": "uint256",
					"internalType": "uint256"
				}
			],
			"stateMutability": "view"
		},
		{
			"type": "function",
			"name": "dao",
			"inputs": [],
			"outputs": [
				{
					"name": "",
					"type": "address",
					"internalType": "contract IDAO"
				}
			],
			"stateMutability": "view"
		},
		{
			"type": "function",
			"name": "getEncryptionAgents",
			"inputs": [],
			"outputs": [
				{
					"name": "result",
					"type": "address[]",
					"internalType": "address[]"
				}
			],
			"stateMutability": "view"
		},
		{
			"type": "function",
			"name": "getListedEncryptionOwnerAtBlock",
			"inputs": [
				{
					"name": "_address",
					"type": "address",
					"internalType": "address"
				},
				{
					"name": "_blockNumber",
					"type": "uint256",
					"internalType": "uint256"
				}
			],
			"outputs": [
				{
					"name": "_owner",
					"type": "address",
					"internalType": "address"
				}
			],
			"stateMutability": "view"
		},
		{
			"type": "function",
			"name": "initialize",
			"inputs": [
				{
					"name": "_dao",
					"type": "address",
					"internalType": "contract IDAO"
				},
				{
					"name": "_signers",
					"type": "address[]",
					"internalType": "address[]"
				}
			],
			"outputs": [],
			"stateMutability": "nonpayable"
		},
		{
			"type": "function",
			"name": "isListed",
			"inputs": [
				{
					"name": "_account",
					"type": "address",
					"internalType": "address"
				}
			],
			"outputs": [
				{
					"name": "",
					"type": "bool",
					"internalType": "bool"
				}
			],
			"stateMutability": "view"
		},
		{
			"type": "function",
			"name": "isListedAtBlock",
			"inputs": [
				{
					"name": "_account",
					"type": "address",
					"internalType": "address"
				},
				{
					"name": "_blockNumber",
					"type": "uint256",
					"internalType": "uint256"
				}
			],
			"outputs": [
				{
					"name": "",
					"type": "bool",
					"internalType": "bool"
				}
			],
			"stateMutability": "view"
		},
		{
			"type": "function",
			"name": "isListedOrAppointedByListed",
			"inputs": [
				{
					"name": "_address",
					"type": "address",
					"internalType": "address"
				}
			],
			"outputs": [
				{
					"name": "listedOrAppointedByListed",
					"type": "bool",
					"internalType": "bool"
				}
			],
			"stateMutability": "view"
		},
		{
			"type": "function",
			"name": "removeSigners",
			"inputs": [
				{
					"name": "_signers",
					"type": "address[]",
					"internalType": "address[]"
				}
			],
			"outputs": [],
			"stateMutability": "nonpayable"
		},
		{
			"type": "function",
			"name": "resolveEncryptionAccountAtBlock",
			"inputs": [
				{
					"name": "_address",
					"type": "address",
					"internalType": "address"
				},
				{
					"name": "_blockNumber",
					"type": "uint256",
					"internalType": "uint256"
				}
			],
			"outputs": [
				{
					"name": "_owner",
					"type": "address",
					"internalType": "address"
				},
				{
					"name": "_agent",
					"type": "address",
					"internalType": "address"
				}
			],
			"stateMutability": "view"
		},
		{
			"type": "function",
			"name": "settings",
			"inputs": [],
			"outputs": [
				{
					"name": "encryptionRegistry",
					"type": "address",
					"internalType": "contract EncryptionRegistry"
				},
				{
					"name": "minSignerListLength",
					"type": "uint16",
					"internalType": "uint16"
				}
			],
			"stateMutability": "view"
		},
		{
			"type": "function",
			"name": "supportsInterface",
			"inputs": [
				{
					"name": "_interfaceId",
					"type": "bytes4",
					"internalType": "bytes4"
				}
			],
			"outputs": [
				{
					"name": "",
					"type": "bool",
					"internalType": "bool"
				}
			],
			"stateMutability": "view"
		},
		{
			"type": "function",
			"name": "updateSettings",
			"inputs": [
				{
					"name": "_newSettings",
					"type": "tuple",
					"internalType": "struct SignerList.Settings",
					"components": [
						{
							"name": "encryptionRegistry",
							"type": "address",
							"internalType": "contract EncryptionRegistry"
						},
						{
							"name": "minSignerListLength",
							"type": "uint16",
							"internalType": "uint16"
						}
					]
				}
			],
			"outputs": [],
			"stateMutability": "nonpayable"
		},
		{
			"type": "event",
			"name": "Initialized",
			"inputs": [
				{
					"name": "version",
					"type": "uint8",
					"indexed": false,
					"internalType": "uint8"
				}
			],
			"anonymous": false
		},
		{
			"type": "event",
			"name": "SignerListSettingsUpdated",
			"inputs": [
				{
					"name": "encryptionRegistry",
					"type": "address",
					"indexed": false,
					"internalType": "contract EncryptionRegistry"
				},
				{
					"name": "minSignerListLength",
					"type": "uint16",
					"indexed": false,
					"internalType": "uint16"
				}
			],
			"anonymous": false
		},
		{
			"type": "event",
			"name": "SignersAdded",
			"inputs": [
				{
					"name": "signers",
					"type": "address[]",
					"indexed": false,
					"internalType": "address[]"
				}
			],
			"anonymous": false
		},
		{
			"type": "event",
			"name": "SignersRemoved",
			"inputs": [
				{
					"name": "signers",
					"type": "address[]",
					"indexed": false,
					"internalType": "address[]"
				}
			],
			"anonymous": false
		},
		{
			"type": "error",
			"name": "DaoUnauthorized",
			"inputs": [
				{
					"name": "dao",
					"type": "address",
					"internalType": "address"
				},
				{
					"name": "where",
					"type": "address",
					"internalType": "address"
				},
				{
					"name": "who",
					"type": "address",
					"internalType": "address"
				},
				{
					"name": "permissionId",
					"type": "bytes32",
					"internalType": "bytes32"
				}
			]
		},
		{
			"type": "error",
			"name": "InvalidAddresslistUpdate",
			"inputs": [
				{
					"name": "member",
					"type": "address",
					"internalType": "address"
				}
			]
		},
		{
			"type": "error",
			"name": "InvalidEncryptionRegistry",
			"inputs": [
				{
					"name": "givenAddress",
					"type": "address",
					"internalType": "address"
				}
			]
		},
		{
			"type": "error",
			"name": "SignerListLengthOutOfBounds",
			"inputs": [
				{
					"name": "limit",
					"type": "uint16",
					"internalType": "uint16"
				},
				{
					"name": "actual",
					"type": "uint256",
					"internalType": "uint256"
				}
			]
		}
	],
	"bytecode": {
		"object": "0x608060405234801561001057600080fd5b5061001961001e565b6100dd565b603254610100900460ff161561008a5760405162461bcd60e51b815260206004820152602760248201527f496e697469616c697a61626c653a20636f6e747261637420697320696e697469604482015266616c697a696e6760c81b606482015260840160405180910390fd5b60325460ff908116146100db576032805460ff191660ff9081179091556040519081527f7f26b83ff96e1f2b6a682f133852f6798a09c465da95921460cefb38474024989060200160405180910390a15b565b6119c2806100ec6000396000f3fe608060405234801561001057600080fd5b50600436106100f55760003560e01c80636a6b2d8611610097578063e06174e411610066578063e06174e414610219578063e8906a2d1461025b578063ed19b9241461026e578063f794062e1461028157600080fd5b80636a6b2d86146101cb5780638d361e43146101de578063946d9204146101f3578063b1bb8d261461020657600080fd5b806327f1608d116100d357806327f1608d146101685780633e9f98561461017e5780634162169f146101935780634ad04876146101b857600080fd5b806301ffc9a7146100fa57806302f9650f1461012257806313b5f72914610155575b600080fd5b61010d6101083660046114e5565b610294565b60405190151581526020015b60405180910390f35b610135610130366004611527565b6102e5565b604080516001600160a01b03938416815292909116602083015201610119565b61010d610163366004611553565b610401565b61017061049b565b604051908152602001610119565b6101866104b5565b6040516101199190611570565b6097546001600160a01b03165b6040516001600160a01b039091168152602001610119565b6101a06101c6366004611527565b61071b565b6101706101d93660046115bd565b6107c1565b6101f16101ec36600461161b565b6107ce565b005b6101f161020136600461165d565b6108bd565b61010d610214366004611527565b610a3f565b60c954610239906001600160a01b03811690600160a01b900461ffff1682565b604080516001600160a01b03909316835261ffff909116602083015201610119565b6101f161026936600461161b565b610a6b565b6101f161027c3660046116b2565b610b90565b61010d61028f366004611553565b610c39565b60006001600160e01b031982166214a6cd60e31b14806102c457506001600160e01b03198216630bb5c60360e01b145b806102df57506301ffc9a760e01b6001600160e01b03198316145b92915050565b6000806102f28484610a3f565b1561036e5760c954604051631c8dbe9f60e11b81526001600160a01b0380871660048301528692169063391b7d3e90602401602060405180830381865afa158015610341573d6000803e3d6000fd5b505050506040513d601f19601f8201168201806040525081019061036591906116d5565b915091506103fa565b60c95460405163e5e9c12760e01b81526001600160a01b038681166004830152600092169063e5e9c12790602401602060405180830381865afa1580156103b9573d6000803e3d6000fd5b505050506040513d601f19601f820116820180604052508101906103dd91906116d5565b90506103e98185610a3f565b156103f85791508390506103fa565b505b9250929050565b600061040c82610c39565b1561041957506001919050565b60c95460405163e5e9c12760e01b81526001600160a01b03848116600483015261048992169063e5e9c12790602401602060405180830381865afa158015610465573d6000803e3d6000fd5b505050506040513d601f19601f8201168201806040525081019061028f91906116d5565b1561049657506001919050565b919050565b60006104a76001610c6d565b6001600160e01b0316905090565b6060600060c960000160009054906101000a90046001600160a01b03166001600160a01b0316638dda93e36040518163ffffffff1660e01b8152600401600060405180830381865afa15801561050f573d6000803e3d6000fd5b505050506040513d6000823e601f3d908101601f191682016040526105379190810190611708565b9050805167ffffffffffffffff811115610553576105536116f2565b60405190808252806020026020018201604052801561057c578160200160208202803683370190505b509150600080805b83518210156106f9576105af8483815181106105a2576105a26117cd565b6020026020010151610c39565b156106ee5760c95484516001600160a01b039091169063391b7d3e908690859081106105dd576105dd6117cd565b60200260200101516040518263ffffffff1660e01b815260040161061091906001600160a01b0391909116815260200190565b602060405180830381865afa15801561062d573d6000803e3d6000fd5b505050506040513d601f19601f8201168201806040525081019061065191906116d5565b90506001600160a01b0381161561069a5780858481518110610675576106756117cd565b60200260200101906001600160a01b031690816001600160a01b0316815250506106e7565b8382815181106106ac576106ac6117cd565b60200260200101518584815181106106c6576106c66117cd565b60200260200101906001600160a01b031690816001600160a01b0316815250505b6001909201915b600190910190610584565b8183101561071457600061070d84846117f9565b8651038652505b5050505090565b60006107278383610a3f565b156107335750816102df565b60c95460405163e5e9c12760e01b81526001600160a01b038581166004830152600092169063e5e9c12790602401602060405180830381865afa15801561077e573d6000803e3d6000fd5b505050506040513d601f19601f820116820180604052508101906107a291906116d5565b90506107ae8184610a3f565b156107ba5790506102df565b5092915050565b60006102df600183610cb6565b6097547f09591533596d094e638b438de2d180bcb3143eb02f7e9dbf65d7115116212eeb9061080c906001600160a01b031630335b84600036610d69565b60008261081761049b565b61082191906117f9565b60c95490915061ffff600160a01b909104811690821610156108745760c9546040516302aacdb960e51b8152600160a01b90910461ffff9081166004830152821660248201526044015b60405180910390fd5b61087e8484610e25565b7f0ad8e8cc4530c19f3ac6ff3db24a5f046da9fa30f9a487dc9afc11268ea9236484846040516108af92919061180c565b60405180910390a150505050565b603254610100900460ff16158080156108dd5750603254600160ff909116105b806108f75750303b1580156108f7575060325460ff166001145b61095a5760405162461bcd60e51b815260206004820152602e60248201527f496e697469616c697a61626c653a20636f6e747261637420697320616c72656160448201526d191e481a5b9a5d1a585b1a5e995960921b606482015260840161086b565b6032805460ff19166001179055801561097d576032805461ff0019166101001790555b61098684610f11565b61ffff8211156109b4576040516302aacdb960e51b815261ffff60048201526024810183905260440161086b565b6109be8383610f9e565b7fab6b3af919a4fa21f9a36b3b9aca5e07fa4426c931e529fa4bde84b5af03f99783836040516109ef92919061180c565b60405180910390a18015610a39576032805461ff0019169055604051600181527f7f26b83ff96e1f2b6a682f133852f6798a09c465da95921460cefb3847402498906020016108af565b50505050565b6001600160a01b0382166000908152602081905260408120610a619083610cb6565b6001149392505050565b6097547f09591533596d094e638b438de2d180bcb3143eb02f7e9dbf65d7115116212eeb90610aa4906001600160a01b03163033610803565b600082610aaf61049b565b610ab9919061185a565b905061ffff811115610ae9576040516302aacdb960e51b815261ffff60048201526024810182905260440161086b565b610af38484610f9e565b7fab6b3af919a4fa21f9a36b3b9aca5e07fa4426c931e529fa4bde84b5af03f9978484604051610b2492919061180c565b60405180910390a160c95460408051633348803f60e01b815290516001600160a01b0390921691633348803f9160048082019260009290919082900301818387803b158015610b7257600080fd5b505af1158015610b86573d6000803e3d6000fd5b5050505050505050565b6097547f557340e1da86f1ece7405a684dc2616fd8730fa7e5a4e14f744c7f79be93d40990610bc9906001600160a01b03163033610803565b610bd282611008565b7f271eac1a412e7a5029d21d9dda1ef14b9e3de2df5c5f7e5711821078ffc6c273610c006020840184611553565b610c10604085016020860161187d565b604080516001600160a01b03909316835261ffff90911660208301520160405180910390a15050565b6001600160a01b0381166000908152602081905260408120610c5a90610c6d565b6001600160e01b03166001149050919050565b80546000908015610cac57610c9583610c876001846117f9565b600091825260209091200190565b5464010000000090046001600160e01b0316610caf565b60005b9392505050565b6000438210610d075760405162461bcd60e51b815260206004820181905260248201527f436865636b706f696e74733a20626c6f636b206e6f7420796574206d696e6564604482015260640161086b565b6000610d1283611182565b84549091506000610d25868483856111eb565b90508015610d5357610d3c86610c876001846117f9565b5464010000000090046001600160e01b0316610d56565b60005b6001600160e01b03169695505050505050565b604051637ef7c88360e11b81526001600160a01b0387169063fdef910690610d9d908890889088908890889060040161189a565b602060405180830381865afa158015610dba573d6000803e3d6000fd5b505050506040513d601f19601f82011682018060405250810190610dde91906118ee565b610e1d57604051630cb6f8ed60e21b81526001600160a01b0380881660048301528087166024830152851660448201526064810184905260840161086b565b505050505050565b60005b81811015610f0257610e5a838383818110610e4557610e456117cd565b905060200201602081019061028f9190611553565b610eaa57828282818110610e7057610e706117cd565b9050602002016020810190610e859190611553565b60405163c0b7477d60e01b81526001600160a01b03909116600482015260240161086b565b610ef86000806000868686818110610ec457610ec46117cd565b9050602002016020810190610ed99190611553565b6001600160a01b03168152602081019190915260400160002090611249565b5050600101610e28565b50610a39600161127d83611282565b603254610100900460ff16610f7c5760405162461bcd60e51b815260206004820152602b60248201527f496e697469616c697a61626c653a20636f6e7472616374206973206e6f74206960448201526a6e697469616c697a696e6760a81b606482015260840161086b565b609780546001600160a01b0319166001600160a01b0392909216919091179055565b60005b81811015610ff957610fbe838383818110610e4557610e456117cd565b15610fd557828282818110610e7057610e706117cd565b610fef6001600080868686818110610ec457610ec46117cd565b5050600101610fa1565b50610a3960016112ba83611282565b60c9546001600160a01b03166110216020830183611553565b6001600160a01b0316148015611056575060c954600160a01b900461ffff16611050604083016020840161187d565b61ffff16145b1561105e5750565b61106b6020820182611553565b6040516301ffc9a760e01b81526336f531db60e01b60048201526001600160a01b0391909116906301ffc9a790602401602060405180830381865afa1580156110b8573d6000803e3d6000fd5b505050506040513d601f19601f820116820180604052508101906110dc91906118ee565b611112576110ed6020820182611553565b60405163af1b3b5d60e01b81526001600160a01b03909116600482015260240161086b565b600061111c61049b565b905061ffff8116611133604084016020850161187d565b61ffff161115611175578061114e604084016020850161187d565b6040516302aacdb960e51b815261ffff92831660048201529116602482015260440161086b565b8160c9610a398282611910565b600063ffffffff8211156111e75760405162461bcd60e51b815260206004820152602660248201527f53616665436173743a2076616c756520646f65736e27742066697420696e203360448201526532206269747360d01b606482015260840161086b565b5090565b60005b8183101561124157600061120284846112be565b60008781526020902090915063ffffffff86169082015463ffffffff16111561122d5780925061123b565b61123881600161185a565b93505b506111ee565b509392505050565b6000806112678461125943611182565b611262866112d9565b611342565b6001600160e01b03918216969116945092505050565b900390565b6000806112ad856112a861129588610c6d565b6001600160e01b0316868863ffffffff16565b611249565b915091505b935093915050565b0190565b60006112cd600284841861196a565b610caf9084841661185a565b60006001600160e01b038211156111e75760405162461bcd60e51b815260206004820152602760248201527f53616665436173743a2076616c756520646f65736e27742066697420696e20326044820152663234206269747360c81b606482015260840161086b565b82546000908190801561148b57600061136087610c876001856117f9565b60408051808201909152905463ffffffff8082168084526401000000009092046001600160e01b0316602084015291925090871610156113e25760405162461bcd60e51b815260206004820152601b60248201527f436865636b706f696e743a2064656372656173696e67206b6579730000000000604482015260640161086b565b805163ffffffff80881691160361142b578461140388610c876001866117f9565b80546001600160e01b03929092166401000000000263ffffffff90921691909117905561147b565b6040805180820190915263ffffffff80881682526001600160e01b0380881660208085019182528b54600181018d5560008d81529190912094519151909216640100000000029216919091179101555b6020015192508391506112b29050565b50506040805180820190915263ffffffff80851682526001600160e01b0380851660208085019182528854600181018a5560008a8152918220955192519093166401000000000291909316179201919091559050816112b2565b6000602082840312156114f757600080fd5b81356001600160e01b031981168114610caf57600080fd5b6001600160a01b038116811461152457600080fd5b50565b6000806040838503121561153a57600080fd5b82356115458161150f565b946020939093013593505050565b60006020828403121561156557600080fd5b8135610caf8161150f565b6020808252825182820181905260009190848201906040850190845b818110156115b15783516001600160a01b03168352928401929184019160010161158c565b50909695505050505050565b6000602082840312156115cf57600080fd5b5035919050565b60008083601f8401126115e857600080fd5b50813567ffffffffffffffff81111561160057600080fd5b6020830191508360208260051b85010111156103fa57600080fd5b6000806020838503121561162e57600080fd5b823567ffffffffffffffff81111561164557600080fd5b611651858286016115d6565b90969095509350505050565b60008060006040848603121561167257600080fd5b833561167d8161150f565b9250602084013567ffffffffffffffff81111561169957600080fd5b6116a5868287016115d6565b9497909650939450505050565b6000604082840312156116c457600080fd5b50919050565b80516104968161150f565b6000602082840312156116e757600080fd5b8151610caf8161150f565b634e487b7160e01b600052604160045260246000fd5b6000602080838503121561171b57600080fd5b825167ffffffffffffffff8082111561173357600080fd5b818501915085601f83011261174757600080fd5b815181811115611759576117596116f2565b8060051b604051601f19603f8301168101818110858211171561177e5761177e6116f2565b60405291825284820192508381018501918883111561179c57600080fd5b938501935b828510156117c1576117b2856116ca565b845293850193928501926117a1565b98975050505050505050565b634e487b7160e01b600052603260045260246000fd5b634e487b7160e01b600052601160045260246000fd5b818103818111156102df576102df6117e3565b60208082528181018390526000908460408401835b8681101561184f5782356118348161150f565b6001600160a01b031682529183019190830190600101611821565b509695505050505050565b808201808211156102df576102df6117e3565b61ffff8116811461152457600080fd5b60006020828403121561188f57600080fd5b8135610caf8161186d565b6001600160a01b038681168252851660208201526040810184905260806060820181905281018290526000828460a0840137600060a0848401015260a0601f19601f85011683010190509695505050505050565b60006020828403121561190057600080fd5b81518015158114610caf57600080fd5b813561191b8161150f565b81546001600160a01b031981166001600160a01b0392909216918217835560208401356119478161186d565b6001600160b01b03199190911690911760a09190911b61ffff60a01b1617905550565b60008261198757634e487b7160e01b600052601260045260246000fd5b50049056fea264697066735822122016e204289189b8dd2fea3aad2b8ceff5f5e32bde776e72336b576e9d94be185364736f6c63430008110033",
		"linkReferences": {}
	},
	"methodIdentifiers": {
		"addSigners(address[])": "e8906a2d",
		"addresslistLength()": "27f1608d",
		"addresslistLengthAtBlock(uint256)": "6a6b2d86",
		"dao()": "4162169f",
		"getEncryptionAgents()": "3e9f9856",
		"getListedEncryptionOwnerAtBlock(address,uint256)": "4ad04876",
		"initialize(address,address[])": "946d9204",
		"isListed(address)": "f794062e",
		"isListedAtBlock(address,uint256)": "b1bb8d26",
		"isListedOrAppointedByListed(address)": "13b5f729",
		"removeSigners(address[])": "8d361e43",
		"resolveEncryptionAccountAtBlock(address,uint256)": "02f9650f",
		"settings()": "e06174e4",
		"supportsInterface(bytes4)": "01ffc9a7",
		"updateSettings((address,uint16))": "ed19b924"
	},
	"id": 153
}