{"abi":[{"type":"constructor","inputs":[],"stateMutability":"nonpayable"},{"type":"function","name":"DEFAULT_ADMIN_ROLE","inputs":[],"outputs":[{"name":"","type":"bytes32","internalType":"bytes32"}],"stateMutability":"view"},{"type":"function","name":"MAX_TARGETS","inputs":[],"outputs":[{"name":"","type":"uint256","internalType":"uint256"}],"stateMutability":"view"},{"type":"function","name":"drillNonce","inputs":[],"outputs":[{"name":"","type":"uint256","internalType":"uint256"}],"stateMutability":"view"},{"type":"function","name":"getRoleAdmin","inputs":[{"name":"role","type":"bytes32","internalType":"bytes32"}],"outputs":[{"name":"","type":"bytes32","internalType":"bytes32"}],"stateMutability":"view"},{"type":"function","name":"getTargets","inputs":[{"name":"_drillNonce","type":"uint256","internalType":"uint256"}],"outputs":[{"name":"","type":"address[]","internalType":"address[]"}],"stateMutability":"view"},{"type":"function","name":"grantRole","inputs":[{"name":"role","type":"bytes32","internalType":"bytes32"},{"name":"account","type":"address","internalType":"address"}],"outputs":[],"stateMutability":"nonpayable"},{"type":"function","name":"hasPinged","inputs":[{"name":"","type":"uint256","internalType":"uint256"},{"name":"","type":"address","internalType":"address"}],"outputs":[{"name":"","type":"bool","internalType":"bool"}],"stateMutability":"view"},{"type":"function","name":"hasRole","inputs":[{"name":"role","type":"bytes32","internalType":"bytes32"},{"name":"account","type":"address","internalType":"address"}],"outputs":[{"name":"","type":"bool","internalType":"bool"}],"stateMutability":"view"},{"type":"function","name":"initialize","inputs":[{"name":"_admin","type":"address","internalType":"address"}],"outputs":[],"stateMutability":"nonpayable"},{"type":"function","name":"isTarget","inputs":[{"name":"","type":"uint256","internalType":"uint256"},{"name":"","type":"address","internalType":"address"}],"outputs":[{"name":"","type":"bool","internalType":"bool"}],"stateMutability":"view"},{"type":"function","name":"ping","inputs":[{"name":"_drillNonce","type":"uint256","internalType":"uint256"}],"outputs":[],"stateMutability":"nonpayable"},{"type":"function","name":"proxiableUUID","inputs":[],"outputs":[{"name":"","type":"bytes32","internalType":"bytes32"}],"stateMutability":"view"},{"type":"function","name":"renounceRole","inputs":[{"name":"role","type":"bytes32","internalType":"bytes32"},{"name":"account","type":"address","internalType":"address"}],"outputs":[],"stateMutability":"nonpayable"},{"type":"function","name":"revokeRole","inputs":[{"name":"role","type":"bytes32","internalType":"bytes32"},{"name":"account","type":"address","internalType":"address"}],"outputs":[],"stateMutability":"nonpayable"},{"type":"function","name":"start","inputs":[],"outputs":[],"stateMutability":"nonpayable"},{"type":"function","name":"start","inputs":[{"name":"_target","type":"address","internalType":"address"}],"outputs":[],"stateMutability":"nonpayable"},{"type":"function","name":"start","inputs":[{"name":"_targets","type":"address[]","internalType":"address[]"}],"outputs":[],"stateMutability":"nonpayable"},{"type":"function","name":"supportsInterface","inputs":[{"name":"interfaceId","type":"bytes4","internalType":"bytes4"}],"outputs":[{"name":"","type":"bool","internalType":"bool"}],"stateMutability":"view"},{"type":"function","name":"targets","inputs":[{"name":"","type":"uint256","internalType":"uint256"},{"name":"","type":"uint256","internalType":"uint256"}],"outputs":[{"name":"","type":"address","internalType":"address"}],"stateMutability":"view"},{"type":"function","name":"upgradeTo","inputs":[{"name":"newImplementation","type":"address","internalType":"address"}],"outputs":[],"stateMutability":"nonpayable"},{"type":"function","name":"upgradeToAndCall","inputs":[{"name":"newImplementation","type":"address","internalType":"address"},{"name":"data","type":"bytes","internalType":"bytes"}],"outputs":[],"stateMutability":"payable"},{"type":"event","name":"AdminChanged","inputs":[{"name":"previousAdmin","type":"address","indexed":false,"internalType":"address"},{"name":"newAdmin","type":"address","indexed":false,"internalType":"address"}],"anonymous":false},{"type":"event","name":"BeaconUpgraded","inputs":[{"name":"beacon","type":"address","indexed":true,"internalType":"address"}],"anonymous":false},{"type":"event","name":"DrillPinged","inputs":[{"name":"drillNonce","type":"uint256","indexed":true,"internalType":"uint256"},{"name":"member","type":"address","indexed":true,"internalType":"address"}],"anonymous":false},{"type":"event","name":"DrillStarted","inputs":[{"name":"drillNonce","type":"uint256","indexed":true,"internalType":"uint256"},{"name":"targets","type":"address[]","indexed":false,"internalType":"address[]"}],"anonymous":false},{"type":"event","name":"Initialized","inputs":[{"name":"version","type":"uint8","indexed":false,"internalType":"uint8"}],"anonymous":false},{"type":"event","name":"RoleAdminChanged","inputs":[{"name":"role","type":"bytes32","indexed":true,"internalType":"bytes32"},{"name":"previousAdminRole","type":"bytes32","indexed":true,"internalType":"bytes32"},{"name":"newAdminRole","type":"bytes32","indexed":true,"internalType":"bytes32"}],"anonymous":false},{"type":"event","name":"RoleGranted","inputs":[{"name":"role","type":"bytes32","indexed":true,"internalType":"bytes32"},{"name":"account","type":"address","indexed":true,"internalType":"address"},{"name":"sender","type":"address","indexed":true,"internalType":"address"}],"anonymous":false},{"type":"event","name":"RoleRevoked","inputs":[{"name":"role","type":"bytes32","indexed":true,"internalType":"bytes32"},{"name":"account","type":"address","indexed":true,"internalType":"address"},{"name":"sender","type":"address","indexed":true,"internalType":"address"}],"anonymous":false},{"type":"event","name":"UpgradeAuthorized","inputs":[{"name":"newImplementation","type":"address","indexed":true,"internalType":"address"},{"name":"authorizer","type":"address","indexed":true,"internalType":"address"}],"anonymous":false},{"type":"event","name":"Upgraded","inputs":[{"name":"implementation","type":"address","indexed":true,"internalType":"address"}],"anonymous":false},{"type":"error","name":"AlreadyPinged","inputs":[{"name":"drillNonce","type":"uint256","internalType":"uint256"},{"name":"member","type":"address","internalType":"address"}]},{"type":"error","name":"DuplicateTarget","inputs":[{"name":"target","type":"address","internalType":"address"}]},{"type":"error","name":"InvalidTarget","inputs":[{"name":"target","type":"address","internalType":"address"}]},{"type":"error","name":"NoTargetsProvided","inputs":[]},{"type":"error","name":"NotAuthorized","inputs":[{"name":"member","type":"address","internalType":"address"}]},{"type":"error","name":"TooManyTargets","inputs":[{"name":"provided","type":"uint256","internalType":"uint256"},{"name":"maximum","type":"uint256","internalType":"uint256"}]}],"bytecode":{"object":"0x60a06040523060805234801561001457600080fd5b5061001d610022565b6100e1565b600054610100900460ff161561008e5760405162461bcd60e51b815260206004820152602760248201527f496e697469616c697a61626c653a20636f6e747261637420697320696e697469604482015266616c697a696e6760c81b606482015260840160405180910390fd5b60005460ff908116146100df576000805460ff191660ff9081179091556040519081527f7f26b83ff96e1f2b6a682f133852f6798a09c465da95921460cefb38474024989060200160405180910390a15b565b608051611a0e6101186000396000818161054201528181610582015281816106210152818161066101526106f00152611a0e6000f3fe60806040526004361061012a5760003560e01c8063773acdef116100ab578063be9a65551161006f578063be9a655514610372578063c4d66de814610387578063d547741f146103a7578063dd0b281e146103c7578063f3e4e385146103e7578063f6b25a401461040757600080fd5b8063773acdef146102b557806391d14854146102d55780639b826fe1146102f5578063a217fddf14610322578063a23af7f91461033757600080fd5b80632f2ff15d116100f25780632f2ff15d1461022b57806336568abe1461024d5780633659cfe61461026d5780634f1ef2861461028d57806352d1902d146102a057600080fd5b806301ffc9a71461012f57806307a7d7a2146101645780630faff2d81461018857806316beac5f146101c3578063248a9ca3146101fb575b600080fd5b34801561013b57600080fd5b5061014f61014a366004611510565b61041c565b60405190151581526020015b60405180910390f35b34801561017057600080fd5b5061017a60fb5481565b60405190815260200161015b565b34801561019457600080fd5b5061014f6101a3366004611556565b60fe60209081526000928352604080842090915290825290205460ff1681565b3480156101cf57600080fd5b506101e36101de366004611582565b610453565b6040516001600160a01b03909116815260200161015b565b34801561020757600080fd5b5061017a6102163660046115a4565b600090815260c9602052604090206001015490565b34801561023757600080fd5b5061024b610246366004611556565b61048b565b005b34801561025957600080fd5b5061024b610268366004611556565b6104b5565b34801561027957600080fd5b5061024b6102883660046115bd565b610538565b61024b61029b3660046115ee565b610617565b3480156102ac57600080fd5b5061017a6106e3565b3480156102c157600080fd5b5061024b6102d03660046115a4565b610796565b3480156102e157600080fd5b5061014f6102f0366004611556565b610867565b34801561030157600080fd5b506103156103103660046115a4565b610892565b60405161015b91906116b0565b34801561032e57600080fd5b5061017a600081565b34801561034357600080fd5b5061014f610352366004611556565b60fc60209081526000928352604080842090915290825290205460ff1681565b34801561037e57600080fd5b5061024b6108fe565b34801561039357600080fd5b5061024b6103a23660046115bd565b610922565b3480156103b357600080fd5b5061024b6103c2366004611556565b610a4e565b3480156103d357600080fd5b5061024b6103e23660046115bd565b610a73565b3480156103f357600080fd5b5061024b6104023660046116fd565b610add565b34801561041357600080fd5b5061017a600c81565b60006001600160e01b03198216637965db0b60e01b148061044d57506301ffc9a760e01b6001600160e01b03198316145b92915050565b60fd602052816000526040600020818154811061046f57600080fd5b6000918252602090912001546001600160a01b03169150829050565b600082815260c960205260409020600101546104a681610b46565b6104b08383610b50565b505050565b6001600160a01b038116331461052a5760405162461bcd60e51b815260206004820152602f60248201527f416363657373436f6e74726f6c3a2063616e206f6e6c792072656e6f756e636560448201526e103937b632b9903337b91039b2b63360891b60648201526084015b60405180910390fd5b6105348282610bd6565b5050565b6001600160a01b037f00000000000000000000000000000000000000000000000000000000000000001630036105805760405162461bcd60e51b815260040161052190611772565b7f00000000000000000000000000000000000000000000000000000000000000006001600160a01b03166105c9600080516020611992833981519152546001600160a01b031690565b6001600160a01b0316146105ef5760405162461bcd60e51b8152600401610521906117be565b6105f881610c3d565b6040805160008082526020820190925261061491839190610c82565b50565b6001600160a01b037f000000000000000000000000000000000000000000000000000000000000000016300361065f5760405162461bcd60e51b815260040161052190611772565b7f00000000000000000000000000000000000000000000000000000000000000006001600160a01b03166106a8600080516020611992833981519152546001600160a01b031690565b6001600160a01b0316146106ce5760405162461bcd60e51b8152600401610521906117be565b6106d782610c3d565b61053482826001610c82565b6000306001600160a01b037f000000000000000000000000000000000000000000000000000000000000000016146107835760405162461bcd60e51b815260206004820152603860248201527f555550535570677261646561626c653a206d757374206e6f742062652063616c60448201527f6c6564207468726f7567682064656c656761746563616c6c00000000000000006064820152608401610521565b5060008051602061199283398151915290565b600081815260fe6020908152604080832033845290915290205460ff166107d257604051634a0bfec160e01b8152336004820152602401610521565b600081815260fc6020908152604080832033845290915290205460ff1615610816576040516303e4551760e01b815260048101829052336024820152604401610521565b600081815260fc60209081526040808320338085529252808320805460ff1916600117905551909183917f54fb82d02ffcb1b2f003d0f05b4d2f9e03226545895c6642a991771cf2ac9ab89190a350565b600091825260c9602090815260408084206001600160a01b0393909316845291905290205460ff1690565b600081815260fd60209081526040918290208054835181840281018401909452808452606093928301828280156108f257602002820191906000526020600020905b81546001600160a01b031681526001909101906020018083116108d4575b50505050509050919050565b600061090981610b46565b604051634752a02b60e11b815260040160405180910390fd5b600054610100900460ff16158080156109425750600054600160ff909116105b8061095c5750303b15801561095c575060005460ff166001145b6109bf5760405162461bcd60e51b815260206004820152602e60248201527f496e697469616c697a61626c653a20636f6e747261637420697320616c72656160448201526d191e481a5b9a5d1a585b1a5e995960921b6064820152608401610521565b6000805460ff1916600117905580156109e2576000805461ff0019166101001790555b6109ea610ded565b6109f2610ded565b6109fa610ded565b610a05600083610b50565b8015610534576000805461ff0019169055604051600181527f7f26b83ff96e1f2b6a682f133852f6798a09c465da95921460cefb38474024989060200160405180910390a15050565b600082815260c96020526040902060010154610a6981610b46565b6104b08383610bd6565b6000610a7e81610b46565b604080516001808252818301909252600091602080830190803683370190505090508281600081518110610ab457610ab461180a565b60200260200101906001600160a01b031690816001600160a01b0316815250506104b081610e5a565b6000610ae881610b46565b6000829003610b0a57604051634752a02b60e11b815260040160405180910390fd5b6104b0838380806020026020016040519081016040528093929190818152602001838360200280828437600092019190915250610e5a92505050565b61061481336110b8565b610b5a8282610867565b61053457600082815260c9602090815260408083206001600160a01b03851684529091529020805460ff19166001179055610b923390565b6001600160a01b0316816001600160a01b0316837f2f8788117e7eff1d82e926ec794901d17c78024a50270940304540a733656f0d60405160405180910390a45050565b610be08282610867565b1561053457600082815260c9602090815260408083206001600160a01b0385168085529252808320805460ff1916905551339285917ff6391f5c32d9c69d2a47ea670b442974b53935d1edc7fd64eb21e047a839171b9190a45050565b6000610c4881610b46565b60405133906001600160a01b038416907fd30e1d298bf814ea43d22b4ce8298062b08609cd67496483769d836157dd52fa90600090a35050565b7f4910fdfa16fed3260ed0e7147f7cc6da11a60208b5b9406d12a635614ffd91435460ff1615610cb5576104b083611111565b826001600160a01b03166352d1902d6040518163ffffffff1660e01b8152600401602060405180830381865afa925050508015610d0f575060408051601f3d908101601f19168201909252610d0c91810190611820565b60015b610d725760405162461bcd60e51b815260206004820152602e60248201527f45524331393637557067726164653a206e657720696d706c656d656e7461746960448201526d6f6e206973206e6f74205555505360901b6064820152608401610521565b6000805160206119928339815191528114610de15760405162461bcd60e51b815260206004820152602960248201527f45524331393637557067726164653a20756e737570706f727465642070726f786044820152681a58589b195555525160ba1b6064820152608401610521565b506104b08383836111ad565b600054610100900460ff16610e585760405162461bcd60e51b815260206004820152602b60248201527f496e697469616c697a61626c653a20636f6e7472616374206973206e6f74206960448201526a6e697469616c697a696e6760a81b6064820152608401610521565b565b8051600c811115610e88576040516374230baf60e11b815260048101829052600c6024820152604401610521565b60fb8054906000610e988361184f565b919050555060005b818110156110795760006001600160a01b0316838281518110610ec557610ec561180a565b60200260200101516001600160a01b031603610f1e57828181518110610eed57610eed61180a565b602002602001015160405163d08525e960e01b815260040161052191906001600160a01b0391909116815260200190565b60fe600060fb5481526020019081526020016000206000848381518110610f4757610f4761180a565b6020908102919091018101516001600160a01b031682528101919091526040016000205460ff1615610fb657828181518110610f8557610f8561180a565b60200260200101516040516377471a8f60e11b815260040161052191906001600160a01b0391909116815260200190565b60fb54600090815260fd602052604090208351849083908110610fdb57610fdb61180a565b602090810291909101810151825460018082018555600094855283852090910180546001600160a01b0319166001600160a01b039093169290921790915560fb54835260fe9091526040822085519192909186908590811061103f5761103f61180a565b6020908102919091018101516001600160a01b03168252810191909152604001600020805460ff1916911515919091179055600101610ea0565b5060fb547fbf3ea58291afd3b6d90fa234def6a18350904477b4bcfd86df9134cc598e10cc836040516110ac91906116b0565b60405180910390a25050565b6110c28282610867565b610534576110cf816111d8565b6110da8360206111ea565b6040516020016110eb92919061188c565b60408051601f198184030181529082905262461bcd60e51b825261052191600401611901565b6001600160a01b0381163b61117e5760405162461bcd60e51b815260206004820152602d60248201527f455243313936373a206e657720696d706c656d656e746174696f6e206973206e60448201526c1bdd08184818dbdb9d1c9858dd609a1b6064820152608401610521565b60008051602061199283398151915280546001600160a01b0319166001600160a01b0392909216919091179055565b6111b68361138d565b6000825111806111c35750805b156104b0576111d283836113cd565b50505050565b606061044d6001600160a01b03831660145b606060006111f9836002611934565b61120490600261194b565b67ffffffffffffffff81111561121c5761121c6115d8565b6040519080825280601f01601f191660200182016040528015611246576020820181803683370190505b509050600360fc1b816000815181106112615761126161180a565b60200101906001600160f81b031916908160001a905350600f60fb1b816001815181106112905761129061180a565b60200101906001600160f81b031916908160001a90535060006112b4846002611934565b6112bf90600161194b565b90505b6001811115611337576f181899199a1a9b1b9c1cb0b131b232b360811b85600f16601081106112f3576112f361180a565b1a60f81b8282815181106113095761130961180a565b60200101906001600160f81b031916908160001a90535060049490941c936113308161195e565b90506112c2565b5083156113865760405162461bcd60e51b815260206004820181905260248201527f537472696e67733a20686578206c656e67746820696e73756666696369656e746044820152606401610521565b9392505050565b61139681611111565b6040516001600160a01b038216907fbc7cd75a20ee27fd9adebab32041f755214dbc6bffa90cc0225b39da2e5c2d3b90600090a250565b606061138683836040518060600160405280602781526020016119b2602791396060600080856001600160a01b03168560405161140a9190611975565b600060405180830381855af49150503d8060008114611445576040519150601f19603f3d011682016040523d82523d6000602084013e61144a565b606091505b509150915061145b86838387611465565b9695505050505050565b606083156114d45782516000036114cd576001600160a01b0385163b6114cd5760405162461bcd60e51b815260206004820152601d60248201527f416464726573733a2063616c6c20746f206e6f6e2d636f6e74726163740000006044820152606401610521565b50816114de565b6114de83836114e6565b949350505050565b8151156114f65781518083602001fd5b8060405162461bcd60e51b81526004016105219190611901565b60006020828403121561152257600080fd5b81356001600160e01b03198116811461138657600080fd5b80356001600160a01b038116811461155157600080fd5b919050565b6000806040838503121561156957600080fd5b823591506115796020840161153a565b90509250929050565b6000806040838503121561159557600080fd5b50508035926020909101359150565b6000602082840312156115b657600080fd5b5035919050565b6000602082840312156115cf57600080fd5b6113868261153a565b634e487b7160e01b600052604160045260246000fd5b6000806040838503121561160157600080fd5b61160a8361153a565b9150602083013567ffffffffffffffff8082111561162757600080fd5b818501915085601f83011261163b57600080fd5b81358181111561164d5761164d6115d8565b604051601f8201601f19908116603f01168101908382118183101715611675576116756115d8565b8160405282815288602084870101111561168e57600080fd5b8260208601602083013760006020848301015280955050505050509250929050565b6020808252825182820181905260009190848201906040850190845b818110156116f15783516001600160a01b0316835292840192918401916001016116cc565b50909695505050505050565b6000806020838503121561171057600080fd5b823567ffffffffffffffff8082111561172857600080fd5b818501915085601f83011261173c57600080fd5b81358181111561174b57600080fd5b8660208260051b850101111561176057600080fd5b60209290920196919550909350505050565b6020808252602c908201527f46756e6374696f6e206d7573742062652063616c6c6564207468726f7567682060408201526b19195b1959d85d1958d85b1b60a21b606082015260800190565b6020808252602c908201527f46756e6374696f6e206d7573742062652063616c6c6564207468726f7567682060408201526b6163746976652070726f787960a01b606082015260800190565b634e487b7160e01b600052603260045260246000fd5b60006020828403121561183257600080fd5b5051919050565b634e487b7160e01b600052601160045260246000fd5b60006001820161186157611861611839565b5060010190565b60005b8381101561188357818101518382015260200161186b565b50506000910152565b7f416363657373436f6e74726f6c3a206163636f756e74200000000000000000008152600083516118c4816017850160208801611868565b7001034b99036b4b9b9b4b733903937b6329607d1b60179184019182015283516118f5816028840160208801611868565b01602801949350505050565b6020815260008251806020840152611920816040850160208701611868565b601f01601f19169190910160400192915050565b808202811582820484141761044d5761044d611839565b8082018082111561044d5761044d611839565b60008161196d5761196d611839565b506000190190565b60008251611987818460208701611868565b919091019291505056fe360894a13ba1a3210667c828492db98dca3e2076cc3735a920a3ca505d382bbc416464726573733a206c6f772d6c6576656c2064656c65676174652063616c6c206661696c6564a26469706673582212208cde9ee80b3c32936167bc684d7b85f135ee3cfa8db624dffa014edd587ed25e64736f6c63430008110033","linkReferences":{}},"methodIdentifiers":{"DEFAULT_ADMIN_ROLE()":"a217fddf","MAX_TARGETS()":"f6b25a40","drillNonce()":"07a7d7a2","getRoleAdmin(bytes32)":"248a9ca3","getTargets(uint256)":"9b826fe1","grantRole(bytes32,address)":"2f2ff15d","hasPinged(uint256,address)":"a23af7f9","hasRole(bytes32,address)":"91d14854","initialize(address)":"c4d66de8","isTarget(uint256,address)":"0faff2d8","ping(uint256)":"773acdef","proxiableUUID()":"52d1902d","renounceRole(bytes32,address)":"36568abe","revokeRole(bytes32,address)":"d547741f","start()":"be9a6555","start(address)":"dd0b281e","start(address[])":"f3e4e385","supportsInterface(bytes4)":"01ffc9a7","targets(uint256,uint256)":"16beac5f","upgradeTo(address)":"3659cfe6","upgradeToAndCall(address,bytes)":"4f1ef286"},"id":103}